:100000000C9496000C94BE000C94BE000C94BE00A0
:100010000C94BE000C94BE000C94BE000C94BE0068
:100020000C94BE000C94BE000C94BE000C94BE0058
:100030000C94BE000C94BE000C94BE000C94BE0048
:100040000C94FD070C94BE000C946D080C944708AA
:100050000C94BE000C94BE000C94BE000C94BE0028
:100060000C94BE000C94BE0044485478782074650B
:1000700073742100C2B04600C2B0432000C2B04633
:1000800020204865617420696E6465783A2000C25A
:10009000B043200025202054656D70657261747531
:1000A00072653A200048756D69646974793A200078
:1000B0004661696C656420746F20726561642066B6
:1000C000726F6D204448542073656E736F72210007
:1000D00000000000240027002A0000000000250086
:1000E00028002B00000000080002010000030407A4
:1000F00000000000000000000000000023002600B7
:10010000290004040404040404040202020202029A
:1001100003030303030301020408102040800102CB
:10012000040810200102040810209F0811241FBE9B
:10013000CFEFD8E0DEBFCDBF11E0A0E0B1E0E4E555
:10014000FAE102C005900D92A232B107D9F721E081
:10015000A2E2B1E001C01D92AB3DB207E1F710E0B1
:10016000C6E9D0E004C02197FE010E94860AC53985
:10017000D107C9F70E94EC080C94280D0C940000DC
:10018000CF92DF92EF92FF92CF93DF93C82F8091AF
:10019000CE018C3009F446C018F48B30D1F06FC01A
:1001A0008551823008F06BC0D091CA016D2F6F77F6
:1001B00070E0762F66278091CB01682B80E090E07D
:1001C0000E949F0B2DEC3CEC4CEC5DE30E94560C26
:1001D00045C06091CA0170E080E090E00E949F0BF2
:1001E0006B017C01D091CB01D7FF0AC09B01AC0110
:1001F00060E070E080E89FEB0E948C0A6B017C015C
:100200006D2F6F7070E080E090E00E94A10B2DECEC
:100210003CEC4CEC5DE30E94560CA70196010E9459
:100220008D0A1EC0D091CA016D2F70E080E090E071
:100230000E949F0B6B017C016091CB016F7070E09D
:1002400080E090E00E94A10B2DEC3CEC4CEC5DE3D7
:100250000E94560CA70196010E948D0AD7FD905866
:10026000CC2389F026E636E646EE5FE30E94560C84
:1002700020E030E040E052E40E948D0A04C060E0DB
:1002800070E080EC9FE7DF91CF91FF90EF90DF90DF
:10029000CF900895CF92DF92EF92FF92CF93DF93AA
:1002A000B091CF01882311F0AB2F01C0A0E0809165
:1002B000D00190E0880F991F88509F4FC090D501C2
:1002C000D090D601E090D701F090D80120E030E046
:1002D000FC01C591D491E881EB23A90160E070E0B5
:1002E000EA130CC02F5F3F4F4C155D056E057F056F
:1002F00078F33FEF2FEF8FEF9FEF03C0322F252FC3
:10030000CB01632F722FDF91CF91FF90EF90DF90A1
:10031000CF900895CF93DF9390E0FC01EA5EFE4F0B
:100320002491FC01EE5FFE4F8491882361F190E0FF
:10033000880F991FFC01E053FF4FC591D491FC0138
:10034000E652FF4FA591B491611109C09FB7F8948F
:100350008881209582238883EC912E230BC0623004
:1003600061F49FB7F8948881322F30958323888376
:10037000EC912E2B2C939FBF06C08FB7F894E88189
:100380002E2B28838FBFDF91CF9108953FB7F8942C
:100390008091230190912401A0912501B091260123
:1003A00026B5A89B05C02F3F19F00196A11DB11DD0
:1003B0003FBFBA2FA92F982F8827820F911DA11D0B
:1003C000B11DBC01CD0142E0660F771F881F991F48
:1003D0004A95D1F708958F929F92AF92BF92CF9294
:1003E000DF92EF92FF926B017C010E94C6014B01EC
:1003F0005C01C114D104E104F104F1F00E94C601D2
:10040000DC01CB0188199909AA09BB09883E9340F0
:10041000A105B10570F321E0C21AD108E108F10885
:1004200088EE880E83E0981EA11CB11CC114D10473
:10043000E104F10419F7DDCFFF90EF90DF90CF904A
:10044000BF90AF909F908F900895CF92DF92EF92E0
:10045000FF920F931F93CF93DF93CDB7DEB7C054B6
:10046000D1400FB6F894DEBF0FBECDBF2FB7F894C2
:100470008091270190912801A0912901B0912A0132
:100480002FBF4091D1015091D2016091D301709161
:10049000D4018C019D01041B150B260B370BB901F0
:1004A000A801403D57406105710518F48091D901BC
:1004B0000DC18093D1019093D201A093D301B09349
:1004C000D4011092CC011092CB011092CA0110926B
:1004D000C9011092C80162E08091CD010E948A0199
:1004E00061E070E080E090E00E94EB0161E08091CB
:1004F000CD010E948A018091CD0190E0FC01EC5178
:10050000FF4F2491FC01EA5EFE4F3491FC01EE5F47
:10051000FE4FE491EE23B9F1222339F1233091F01B
:1005200038F42130A9F0223001F584B58F7D12C056
:10053000273091F02830A1F02430B9F48091800068
:100540008F7D03C0809180008F77809380000DC0E5
:1005500084B58F7784BD09C08091B0008F7703C0C8
:100560008091B0008F7D8093B000F0E0EE0FFF1F10
:10057000E652FF4FA591B4919FB7F8948C913095B6
:1005800038233C939FBF8091CE018551823028F45F
:100590008BE291E10197F1F706C064E170E080E041
:1005A00090E00E94EB0162E08091CD010E948A01FF
:1005B0008091DA0190E08230910538F0880F991F20
:1005C000880F991F05970197F1F7F89480E00E9432
:1005D0004A016F3F7F4F8F4F9F4F21F41092D901F7
:1005E000789441C081E00E944A016F3F7F4F8F4F56
:1005F0009F4FA1F38E010F5F1F4F6E018FEBC81A43
:100600008EEFD80A780180E00E944A01F7016083EA
:1006100071838283938381E00E944A01F70164839E
:10062000758386839783F8E0EF0EF11CEC14FD04CC
:1006300051F7789420E030E0F801C080D180E2806A
:10064000F3804481558166817781FFEFCF16DF0605
:10065000EF06FF0631F04F3F8FEF58076807780726
:1006600021F41092D90180E031C0F90183E0F595C1
:10067000E7958A95E1F7E853FE4F8081880FC4160D
:10068000D506E606F70608F4816080832F5F3F4FAA
:10069000085F1F4F2832310579F62091CC0130E0F8
:1006A0004091C8018091C90190E0840F911D409153
:1006B000CA01840F911D4091CB01840F911D992790
:1006C0002817390771F681E08093D901C05CDE4FAD
:1006D0000FB6F894DEBF0FBECDBFDF91CF911F9153
:1006E0000F91FF90EF90DF90CF900895CF92DF921F
:1006F000EF92FF920F931F93CF93DF936C017A01D8
:100700008B01C0E0D0E0CE15DF0581F0D8016D91FE
:100710008D01D601ED91FC910190F081E02DC60193
:100720000995892B11F02196EECF7E01C701DF914B
:10073000CF911F910F91FF90EF90DF90CF90089590
:10074000089580E090E00895FC01538D448D252F9D
:1007500030E0842F90E0821B930B541710F0CF965B
:10076000089501970895FC01918D828D981761F08D
:10077000828DDF01A80FB11D5D968C91928D9F5FD8
:100780009F73928F90E008958FEF9FEF0895FC0183
:10079000918D828D981731F0828DE80FF11D858D36
:1007A00090E008958FEF9FEF0895FC01918D228DC9
:1007B000892F90E0805C9F4F821B91098F7399274E
:1007C00008958BE291E00E94D50321E0892B09F482
:1007D00020E0822F0895FC01848DDF01A80FB11D58
:1007E000A35ABF4F2C91848D90E001968F73992767
:1007F000848FA689B7892C93A089B1898C91837045
:1008000080648C93938D848D981306C00288F3893D
:10081000E02D80818F7D80830895EF92FF920F936A
:100820001F93CF93DF93EC0181E0888F9B8D8C8D9C
:10083000981305C0E889F989808185FD26C0F62EC8
:100840000B8D10E00F5F1F4F0F731127E02E8C8D63
:10085000E8120CC00FB607FCFACFE889F98980814D
:1008600085FFF5CFCE010E94EB03F1CF8B8DFE010A
:10087000E80FF11DE35AFF4FF0829FB7F8940B8FFA
:10088000EA89FB89808180620AC09FB7F894EE896B
:10089000FF896083E889F98980818370806480831F
:1008A0009FBF81E090E0DF91CF911F910F91FF906A
:1008B000EF9008950F931F93CF93DF938C01C0E0C7
:1008C000D0E0F801EC0FFD1F6491662341F08BE24C
:1008D00091E00E940D04892B11F02196F2CFCE01F8
:1008E000DF91CF911F910F910895CF93DF93EC018A
:1008F000888D8823C9F0EA89FB89808185FD05C040
:10090000A889B9898C9186FD0FC00FB607FCF5CF79
:10091000808185FFF2CFA889B9898C9185FFEDCFC1
:10092000CE010E94EB03E7CFDF91CF91089580E0E5
:1009300090E0892B29F00E94E10381110C940000C2
:100940000895009769F0FC0101900020E9F73197C4
:10095000AF01481B590BBC018BE291E00C9476036C
:1009600080E090E00895CF93DF930E945A04EC0159
:1009700082E191E00E94A1048C0F9D1FDF91CF9135
:1009800008952F923F924F925F926F927F928F9233
:100990009F92AF92BF92CF92DF92EF92FF920F930E
:1009A0001F93CF93DF93CDB7DEB7A4970FB6F8941C
:1009B000DEBF0FBECDBF4B015C01F42E9B01AC012D
:1009C0000E94090D882319F085E191E027C02401D8
:1009D0003501E89477F82FEF3FEF4FE75FE7C3016A
:1009E000B2010E94090D81110DC02FEF3FEF4FE7BB
:1009F0005FE7C301B2010E94F90A18161CF489E1ED
:100A000091E00CC02FEF3FEF4FE75FE4C501B40169
:100A10000E94510C18162CF48DE191E00E94A10463
:100A2000B8C02FEF3FEF4FE75FECC501B4010E9464
:100A3000F90A87FDF1CF20E030E0A901C501B4013A
:100A40000E94F90A87FF0BC06DE28BE291E00E94E1
:100A50000D043C01B7FAB094B7F8B09402C0612C11
:100A6000712C10E060E070E080E09FE3F11641F04F
:100A700020E030E040E251E40E94FE0A1F5FF6CF22
:100A8000A50194010E948D0A4B015C010E94700B2C
:100A90006AA3C72ED82EE92E19A2262F372F482F4A
:100AA000592F8E010F5D1F4F0BA31CA39AE0292E17
:100AB000312C412C512CCA01B901A20191010E9493
:100AC000640A605DF80162938F01211531054105CB
:100AD000510589F7CF010E94A1048301080F191F56
:100AE000FF2009F455C06AA17C2D8D2D9E2D0E94FA
:100AF0009F0B9B01AC01C501B4010E948C0A4B0104
:100B00005C016EE28BE291E00E940D04080F191F58
:100B10008AE0282E312C412C512C20E030E040E29C
:100B200051E4C501B4010E94560C4B015C010E94C6
:100B3000700B9B0140E050E019A2CBA0DCA0762E08
:100B40003AA3642EE52ECA01B901A20191010E94C7
:100B5000640A605DF60162936F012115310541055C
:100B6000510589F7CF010E94A104080F191F672DB5
:100B70007AA1862D9E2D0E949F0B9B01AC01C50181
:100B8000B4010E948C0A4B015C01FA94F110C5CFAC
:100B9000C801A4960FB6F894DEBF0FBECDBFDF919B
:100BA000CF911F910F91FF90EF90DF90CF90BF906A
:100BB000AF909F908F907F906F905F904F903F90FD
:100BC0002F9008954F925F926F927F928F929F9293
:100BD000AF92BF92CF92DF92EF92FF920F93CF939B
:100BE000DF93CDB7DEB728970FB6F894DEBF0FBE00
:100BF000CDBF6B017C0149015A0101110EC026E6EF
:100C000036E646EE5FE30E94560C20E030E040E01E
:100C100052E40E948D0A6B017C0120E030E048E83C
:100C200052E4C701B6010E948C0A2AE939E949E970
:100C30005FE30E94560C2B013C0120E030E044E7CA
:100C400052E4C701B6010E948D0A9B01AC01C301A9
:100C5000B2010E948D0A2B013C0122E133E840ECF5
:100C60005DE3C501B4010E94560C9B01AC01C301B8
:100C7000B2010E948D0A20E030E040E05FE30E9474
:100C8000560C2B013C0120E030E04EE952E40E947A
:100C9000510C18160CF075C1A7019601C701B601D9
:100CA0000E94560C2B013C01A5019401C501B40121
:100CB0000E94560C6D837E838F83988721E133E2F7
:100CC00043E050E4C701B6010E94560C29E134E824
:100CD00049E252E40E948C0A69837A838B839C8365
:100CE00026E13BE442E251E4C501B4010E94560C06
:100CF0009B01AC0169817A818B819C810E948D0A64
:100D000069837A838B839C8328E436E246E65EEB34
:100D1000C701B6010E94560CA50194010E94560C11
:100D20009B01AC0169817A818B819C810E948D0A33
:100D300069837A838B839C8320EE3FE040EE5BEBFC
:100D4000C301B2010E94560C9B01AC0169817A81FA
:100D50008B819C810E948D0A69837A838B839C831B
:100D600028EF37E840E65DEB6D817E818F819885C5
:100D70000E94560C9B01AC0169817A818B819C8118
:100D80000E948D0A69837A838B839C832CEA3DE0E1
:100D900041EA5AE3C301B2010E94560CA501940135
:100DA0000E94560C9B01AC0169817A818B819C81E8
:100DB0000E948D0A69837A838B839C8328EC3FE8A9
:100DC0004FE55AE3C701B6010E94560C2D813E81C2
:100DD0004F8158850E94560C9B01AC0169817A8134
:100DE0008B819C810E948D0A69837A838B839C838B
:100DF00021EF3BE845E056EBC301B2010E94560CDF
:100E00002D813E814F8158850E94560C9B01AC017B
:100E100069817A818B819C810E948D0A2B013C0122
:100E200020E030E040E551E4C501B4010E94F90A38
:100E300087FF5CC020E030E040EA52E4C701B60121
:100E40000E94510C87FD52C020E030E040EE52E499
:100E5000C701B6010E94F90A18160CF4A6C0A50134
:100E6000940160E070E080E591E40E948C0A20E04B
:100E700030E040E85EE30E94560C4B015C0120E04C
:100E800030E04EEB52E4C701B6010E948C0A6B01C0
:100E90007C0120E030E0A9010E94510C18164CF4AE
:100EA000A701960160E070E088E891E40E948C0A56
:100EB00008C020E030E048E851E4C701B6010E94D4
:100EC0008D0A2EE33DEE40E75DE30E94560C0E9442
:100ED000C90C9B01AC01C501B4010E94560C9B01D9
:100EE000AC01B201C3010E948C0A49C020E030E08D
:100EF0004AEA52E4C501B4010E94510C18160CF0E4
:100F000040C020E030E040EA52E4C701B6010E9450
:100F1000510C87FD36C020E030E04EEA52E4C701B4
:100F2000B6010E94F90A181664F120E030E04AEA9E
:100F300052E4C501B4010E948C0A2DEC3CEC4CEC4F
:100F40005DE30E94560C4B015C01A701960160E035
:100F500070E08EEA92E40E948C0A2DEC3CEC4CE4AA
:100F60005EE30E94560C9B01AC01C501B4010E94D6
:100F7000560C9B01AC01B201C3010E948D0A2B01EA
:100F80003C0101110FC020E030E040E052E4B2012A
:100F9000C3010E948C0A26E838E34EE05FE30E941A
:100FA000560C0FC0B201C3010CC020E030E04AEA89
:100FB00052E4C501B4010E94510C18160CF4ABCFD9
:100FC000E0CF6B017C01C701B60128960FB6F894FB
:100FD000DEBF0FBECDBFDF91CF910F91FF90EF909D
:100FE000DF90CF90BF90AF909F908F907F906F9049
:100FF0005F904F9008950E94230D1F920F920FB69D
:101000000F9211242F933F938F939F93AF93BF938E
:101010008091270190912801A0912901B0912A0186
:101020003091220123E0230F2D3720F40196A11DDA
:10103000B11D05C026E8230F0296A11DB11D209306
:1010400022018093270190932801A0932901B09356
:101050002A018091230190912401A0912501B09152
:1010600026010196A11DB11D8093230190932401B7
:10107000A0932501B0932601BF91AF919F918F91CD
:101080003F912F910F900FBE0F901F9018951F92B8
:101090000F920FB60F9211242F933F934F935F93AC
:1010A0006F937F938F939F93AF93BF93EF93FF9330
:1010B0008BE291E00E94EB03FF91EF91BF91AF9122
:1010C0009F918F917F916F915F914F913F912F9160
:1010D0000F900FBE0F901F9018951F920F920FB692
:1010E0000F9211242F938F939F93EF93FF93E0918F
:1010F0003B01F0913C018081E0914101F09142017E
:1011000082FD12C09081809144018F5F8F73209186
:101110004501821751F0E0914401F0E0E55DFE4F9A
:10112000958F8093440101C08081FF91EF919F9141
:101130008F912F910F900FBE0F901F901895EBE29B
:10114000F1E01382128288EE93E0A0E0B0E08483A5
:101150009583A683B78384E091E09183808385ECB7
:1011600090E09587848784EC90E09787868780EC71
:1011700090E0918B808B81EC90E0938B828B82EC62
:1011800090E0958B848B86EC90E0978B868B118E0C
:10119000128E138E148EA8ECB1E082E015968C931B
:1011A000159786E116968C931697E8E1F1E0E491A5
:1011B0001796EC931797E4E0F1E0E4911896EC931E
:1011C000189740E85EE360E070E01D964D935D93F4
:1011D0006D937C9350970895CF93DF93CDB7DEB78F
:1011E00028970FB6F894DEBF0FBECDBF789484B5B4
:1011F000826084BD84B5816084BD85B5826085BD13
:1012000085B5816085BD80916E00816080936E00A0
:101210001092810080918100826080938100809192
:101220008100816080938100809180008160809343
:1012300080008091B10084608093B1008091B00003
:1012400081608093B00080917A00846080937A00FE
:1012500080917A00826080937A0080917A00816028
:1012600080937A0080917A00806880937A0010924F
:10127000C100E0913B01F0913C0182E08083E0916C
:101280003701F09138011082E0913901F0913A0173
:101290008FEC808310924301E0913F01F091400177
:1012A00086E08083E0913D01F0913E018081806184
:1012B0008083E0913D01F0913E01808188608083D0
:1012C000E0913D01F0913E01808180688083E09152
:1012D0003D01F0913E0180818F7D808388E690E022
:1012E0000E94B30462E08091CD010E948A012FB771
:1012F000F8948091270190912801A0912901B09143
:101300002A012FBF805D9740A109B1098093D101C7
:101310009093D201A093D301B093D40187E380933B
:10132000DA0160ED77E080E090E00E94EB010E943E
:1013300025028823D1F18091CE018B30B0F18D3020
:10134000A8F08551823088F56091C8017091C9017B
:1013500076276727762780E090E00E949F0B2DEC90
:101360003CEC4CEC5DE30E94560C1CC06091C90142
:1013700070E080E090E00E94A10B2DEC3CEC4CEC86
:101380005DE30E94560C6B017C016091C80170E026
:1013900080E090E00E94A10B9B01AC01C701B60167
:1013A0000E948D0A6B017C0106C0C12CD12C20EC5F
:1013B000E22E2FE7F22E0E942502882331F080E0F2
:1013C0000E94C0002B013C0106C0412C512C90EC26
:1013D000692E9FE7792E0E942502882331F081E053
:1013E0000E94C0004B015C0106C0812C912C80EC56
:1013F000A82E8FE7B82EA7019601C701B6010E945B
:10140000090D811110C0A3019201C301B2010E9414
:10141000090D811108C0A5019401C501B4010E9404
:10142000090D882319F080EB90E049C001E0A70185
:101430009601C501B4010E94E20569837A838B831A
:101440009C8300E0A7019601C301B2010E94E2055E
:101450006D837E838F83988785EA90E00E945A048B
:1014600042E0C701B6010E94C10484E990E00E94F5
:101470005A0442E0C301B2010E94C1048FE890E027
:101480000E945A0442E0C501B4010E94C1048DE7E4
:1014900090E00E945A0442E06D817E818F819885A0
:1014A0000E94C10488E790E00E945A0442E06981EA
:1014B0007A818B819C810E94C10484E790E00E9424
:1014C000B3040E9497042DCFA1E21A2EAA1BBB1BC6
:1014D000FD010DC0AA1FBB1FEE1FFF1FA217B30700
:1014E000E407F50720F0A21BB30BE40BF50B661F16
:1014F000771F881F991F1A9469F7609570958095DA
:1015000090959B01AC01BD01CF010895EE0FFF1F27
:101510000590F491E02D09945058BB27AA270E940A
:10152000A40A0C94170C0E94090C38F00E94100CAD
:1015300020F039F49F3F19F426F40C94060C0EF4B5
:10154000E095E7FB0C94000CE92F0E94280C58F35F
:10155000BA17620773078407950720F079F4A6F598
:101560000C944A0C0EF4E0950B2EBA2FA02D0B0113
:10157000B90190010C01CA01A0011124FF27591BD8
:1015800099F0593F50F4503E68F11A16F040A22FDE
:10159000232F342F4427585FF3CF4695379527954F
:1015A000A795F0405395C9F77EF41F16BA0B620B4E
:1015B000730B840BBAF09150A1F0FF0FBB1F661F95
:1015C000771F881FC2F70EC0BA0F621F731F841FD8
:1015D00048F4879577956795B795F7959E3F08F0FE
:1015E000B0CF9395880F08F09927EE0F97958795C0
:1015F00008950E94DC0B08F481E008950E94120B0C
:101600000C94170C0E94100C58F00E94090C40F02A
:1016100029F45F3F29F00C94000C51110C944B0CF1
:101620000C94060C0E94280C68F39923B1F35523FF
:1016300091F3951B550BBB27AA27621773078407E5
:1016400038F09F5F5F4F220F331F441FAA1FA9F37B
:1016500035D00E2E3AF0E0E832D091505040E69569
:10166000001CCAF72BD0FE2F29D0660F771F881FCA
:10167000BB1F261737074807AB07B0E809F0BB0BBD
:10168000802DBF01FF2793585F4F3AF09E3F5105D1
:1016900078F00C94000C0C944B0C5F3FE4F3983EF4
:1016A000D4F3869577956795B795F7959F5FC9F7BA
:1016B000880F911D9695879597F90895E1E0660F3B
:1016C000771F881FBB1F621773078407BA0720F0B4
:1016D000621B730B840BBA0BEE1F88F7E09508951D
:1016E0000E94300C88F09F5798F0B92F9927B75176
:1016F000B0F0E1F0660F771F881F991F1AF0BA95B6
:10170000C9F714C0B13091F00E944A0CB1E00895BD
:101710000C944A0C672F782F8827B85F39F0B93FAF
:10172000CCF3869577956795B395D9F73EF4909568
:101730008095709561957F4F8F4F9F4F0895E894E6
:1017400009C097FB3EF490958095709561957F4F09
:101750008F4F9F4F9923A9F0F92F96E9BB279395B7
:10176000F695879577956795B795F111F8CFFAF4C7
:10177000BB0F11F460FF1BC06F5F7F4F8F4F9F4FF8
:1017800016C0882311F096E911C0772321F09EE856
:10179000872F762F05C0662371F096E8862F70E0BC
:1017A00060E02AF09A95660F771F881FDAF7880F96
:1017B0009695879597F90895990F0008550FAA0BEC
:1017C000E0E8FEEF16161706E807F907C0F0121654
:1017D0001306E407F50798F0621B730B840B950B57
:1017E00039F40A2661F0232B242B252B21F40895AC
:1017F0000A2609F4A140A6958FEF811D811D089549
:1018000097F99F6780E870E060E008959FEF80ECB3
:10181000089500240A941616170618060906089556
:1018200000240A9412161306140605060895092EBC
:101830000394000C11F4882352F0BB0F40F4BF2B2B
:1018400011F460FF04C06F5F7F4F8F4F9F4F08956B
:1018500057FD9058440F551F59F05F3F71F0479561
:10186000880F97FB991F61F09F3F79F08795089546
:10187000121613061406551FF2CF4695F1DF08C065
:10188000161617061806991FF1CF86957105610582
:1018900008940895E894BB2766277727CB0197F92A
:1018A00008950E94DC0B08F48FEF08950E94690CE4
:1018B0000C94170C0E94090C38F00E94100C20F0B8
:1018C000952311F00C94000C0C94060C11240C942C
:1018D0004B0C0E94280C70F3959FC1F3950F50E0BC
:1018E000551F629FF001729FBB27F00DB11D639FD2
:1018F000AA27F00DB11DAA1F649F6627B00DA11D78
:10190000661F829F2227B00DA11D621F739FB00D1D
:10191000A11D621F839FA00D611D221F749F33278D
:10192000A00D611D231F849F600D211D822F762F26
:101930006A2F11249F5750409AF0F1F088234AF003
:10194000EE0FFF1FBB1F661F771F881F915050406F
:10195000A9F79E3F510580F00C94000C0C944B0CA1
:101960005F3FE4F3983ED4F3869577956795B795F6
:10197000F795E7959F5FC1F7FE2B880F911D969510
:10198000879597F9089519F416F40C94060C0C94A5
:101990000E0D0E94300CB8F39923C9F3B6F39F578C
:1019A000550B87FF0E941C0D0024A0E640EA900121
:1019B00080585695979528F4805C660F771F881F8E
:1019C00020F026173707480730F4621B730B840B8F
:1019D000202931294A2BA6951794079420253125D3
:1019E0004A2758F7660F771F881F20F026173707FA
:1019F000480730F4620B730B840B200D311D411D21
:101A0000A09581F7B901842F9158880F96958795F5
:101A100008950E94DC0B880B990B08959F3F31F0CD
:101A2000915020F4879577956795B795880F911D0C
:101A30009695879597F9089591505040660F771FB6
:101A4000881FD2F7089581E090E0F8940C94280D57
:041A5000F894FFCF38
:101A5400000000000D047603A4037504D503B3034A
:101A6400C7030D0A006E616E00696E66006F7666CC
:021A7400000070
:00000001FF
